:1000000000308A001928000024308400831300087F
:10001000031918280130F800F701F70B0D28F80B29
:100020000C284A30F700F70B13281628800B0A28F3
:10003000080083161F149F141F159F1183131F3070
:100040008305003086000330880086018312860114
:100050000130A100831608148312081C5828A2013D
:100060002208073C031C40288316860183122108BE
:1000700086006430A40004200310A10DA20A3028D9
:100080000310A10C831688148312881C5828A3011E
:100090002308073C031C5828831686018312210875
:1000A00086006430A40004200310A10CA30A482891
:0400B0002828630099
:02400E00393F38
:00000001FF
;PIC16F877
;CRC=2214  CREATED="01-Þub-20 16:34"
